{
  "transactions": [
    {
      "hash": null,
      "transactionType": "CALL",
      "contractName": null,
      "contractAddress": "0x9341c7f8d89e86476354d3e9c44c2c23c7279544",
      "function": "unlock(bytes16)",
      "arguments": [
        "0xda64e7f9743eeba9c81ab1f5fad2bd5a00000000000000000000000000000000"
      ],
      "transaction": {
        "from": "0xf7b93f87b1e94f489929e3a8e25af9fc49836d64",
        "to": "0x9341c7f8d89e86476354d3e9c44c2c23c7279544",
        "gas": "0x819b",
        "value": "0x0",
        "input": "0xe1afb08cda64e7f9743eeba9c81ab1f5fad2bd5a00000000000000000000000000000000",
        "nonce": "0x0",
        "chainId": "0x13882",
        "accessList": null,
        "type": null
      },
      "additionalContracts": [],
      "isFixedGasLimit": false
    }
  ],
  "receipts": [],
  "libraries": [],
  "pending": [],
  "returns": {},
  "timestamp": 1716391283,
  "chain": 80002,
  "commit": "1cfc581"
}